:100000000C9434000C9449000C9449000C94490061
:100010000C9449000C9449000C9449000C9449003C
:100020000C9449000C9449000C9449000C9449002C
:100030000C9449000C9449000C9449000C9449001C
:100040000C9449000C9449000C9449000C9449000C
:100050000C9449000C9449000C9449000C944900FC
:100060000C9449000C94490011241FBECFEFD8E036
:10007000DEBFCDBF11E0A0E0B1E0EAE7F2E002C0F0
:1000800005900D92AA35B107D9F70E9489000C940A
:100090003B010C940000FC0181818233C9F587810A
:1000A0008333B1F585818133C9F48381813311F4C0
:1000B000289A0895823311F4299A0895833311F40C
:1000C0002A9A0895843311F42B9A0895853311F4F4
:1000D0002C9A08958633E1F42D9A08958033C1F463
:1000E0008381813311F428980895823311F429987B
:1000F0000895833311F42A980895843311F42B98CA
:100100000895853311F42C980895863309F42D98B9
:100110000895CF92DF92EF92FF920F931F93DF9398
:10012000CF93CDB7DEB7C256D0400FB6F894DEBF3E
:100130000FBECDBF8FEF84B9DE01AD5BBF4FE0E0F6
:10014000F1E080E201900D928150E1F7DE01959699
:10015000E0E2F1E08EE101900D928150E1F7DE01E5
:100160001996EEE3F1E08CE101900D928150E1F7F8
:1001700087E690E00E94E800CE018D5B9F4F0E94D1
:10018000020195E2C92ED12CCC0EDD1E8E010F5F2F
:100190001F4F89E0E82EF12CEC0EFD1EC6010E94D7
:1001A0000201C80168E070E00E940F018091C00068
:1001B00087FFFCCF8A81823339F48885833321F429
:1001C000C8010E944B00EACFC7010E940201E6CF9E
:1001D0009093C5008093C40088E18093C10086E0BD
:1001E0008093C2000895982F8091C00085FFFCCFB6
:1001F0009093C60008958091C00087FFFCCF809146
:10020000C6000895FC0107C08091C00085FFFCCFA7
:1002100031969093C60090819923B1F70895582F95
:10022000292F8091C00087FFFCCF4091C6008091AC
:10023000C00085FFFCCF4093C600852F922F9C0104
:10024000F901615070400EC040838091C00087FF6B
:10025000FCCF4091C6008091C00085FFFCCF319655
:100260004093C6008E2F851B4D3021F090E08617FD
:0A027000970754F30895F894FFCFA8
:10027A000A0D2055534152542036204C45442053F0
:10028A007472696E6720537769746368200A0D0077
:10029A000A0D205479706520696E70757420616E3C
:1002AA00642068697420456E7465723A20000A0DEC
:1002BA002057726F6E6720696E7075742121205401
:0A02CA00727920416761696E20001F
:00000001FF
